{
  "contractName": "Weddings",
  "abi": [
    {
      "constant": true,
      "inputs": [
        {
          "name": "",
          "type": "uint256"
        }
      ],
      "name": "weddings",
      "outputs": [
        {
          "name": "id",
          "type": "uint256"
        },
        {
          "name": "state",
          "type": "uint8"
        },
        {
          "name": "tokenContractA",
          "type": "address"
        },
        {
          "name": "tokenIdA",
          "type": "uint256"
        },
        {
          "name": "partner",
          "type": "address"
        },
        {
          "name": "tokenContractB",
          "type": "address"
        },
        {
          "name": "tokenIdB",
          "type": "uint256"
        },
        {
          "name": "openDuration",
          "type": "uint256"
        }
      ],
      "payable": false,
      "stateMutability": "view",
      "type": "function"
    },
    {
      "inputs": [],
      "payable": false,
      "stateMutability": "nonpayable",
      "type": "constructor"
    },
    {
      "constant": true,
      "inputs": [
        {
          "name": "tokenContractAddr",
          "type": "address"
        },
        {
          "name": "tokenId",
          "type": "uint256"
        }
      ],
      "name": "getWeddingIdByProposer",
      "outputs": [
        {
          "name": "weddingId",
          "type": "uint256"
        }
      ],
      "payable": false,
      "stateMutability": "view",
      "type": "function"
    },
    {
      "constant": false,
      "inputs": [
        {
          "name": "tokenContractAddr",
          "type": "address"
        },
        {
          "name": "tokenId",
          "type": "uint256"
        },
        {
          "name": "partnerAddr",
          "type": "address"
        },
        {
          "name": "openDuration",
          "type": "uint256"
        }
      ],
      "name": "createWedding",
      "outputs": [
        {
          "name": "weddingId",
          "type": "uint256"
        }
      ],
      "payable": false,
      "stateMutability": "nonpayable",
      "type": "function"
    },
    {
      "constant": false,
      "inputs": [
        {
          "name": "weddingId",
          "type": "uint256"
        },
        {
          "name": "tokenContractAddr",
          "type": "address"
        },
        {
          "name": "tokenId",
          "type": "uint256"
        }
      ],
      "name": "acceptWedding",
      "outputs": [
        {
          "name": "success",
          "type": "bool"
        }
      ],
      "payable": false,
      "stateMutability": "nonpayable",
      "type": "function"
    },
    {
      "constant": false,
      "inputs": [
        {
          "name": "weddingId",
          "type": "uint256"
        },
        {
          "name": "tokenContract",
          "type": "address"
        },
        {
          "name": "tokenId",
          "type": "uint256"
        }
      ],
      "name": "joinWedding",
      "outputs": [
        {
          "name": "success",
          "type": "bool"
        }
      ],
      "payable": false,
      "stateMutability": "nonpayable",
      "type": "function"
    }
  ],
  "bytecode": "0x608060405234801561001057600080fd5b50610f79806100206000396000f3fe60806040526004361061006d576000357c0100000000000000000000000000000000000000000000000000000000900463ffffffff1680630af680321461007257806315bfb084146100e15780633530c87d1461015e5780633f843398146101f75780634fe00c9614610274575b600080fd5b34801561007e57600080fd5b506100cb6004803603604081101561009557600080fd5b81019080803573ffffffffffffffffffffffffffffffffffffffff16906020019092919080359060200190929190505050610386565b6040518082815260200191505060405180910390f35b3480156100ed57600080fd5b506101446004803603606081101561010457600080fd5b8101908080359060200190929190803573ffffffffffffffffffffffffffffffffffffffff169060200190929190803590602001909291905050506104fe565b604051808215151515815260200191505060405180910390f35b34801561016a57600080fd5b506101e16004803603608081101561018157600080fd5b81019080803573ffffffffffffffffffffffffffffffffffffffff16906020019092919080359060200190929190803573ffffffffffffffffffffffffffffffffffffffff1690602001909291908035906020019092919050505061050b565b6040518082815260200191505060405180910390f35b34801561020357600080fd5b5061025a6004803603606081101561021a57600080fd5b8101908080359060200190929190803573ffffffffffffffffffffffffffffffffffffffff16906020019092919080359060200190929190505050610a67565b604051808215151515815260200191505060405180910390f35b34801561028057600080fd5b506102ad6004803603602081101561029757600080fd5b8101908080359060200190929190505050610de4565b604051808981526020018860038111156102c357fe5b60ff1681526020018773ffffffffffffffffffffffffffffffffffffffff1673ffffffffffffffffffffffffffffffffffffffff1681526020018681526020018573ffffffffffffffffffffffffffffffffffffffff1673ffffffffffffffffffffffffffffffffffffffff1681526020018473ffffffffffffffffffffffffffffffffffffffff1673ffffffffffffffffffffffffffffffffffffffff1681526020018381526020018281526020019850505050505050505060405180910390f35b60008073ffffffffffffffffffffffffffffffffffffffff168373ffffffffffffffffffffffffffffffffffffffff161415151561042c576040517f08c379a000000000000000000000000000000000000000000000000000000000815260040180806020018281038252601f8152602001807f746f6b656e436f6e747261637441646472206d757374206e6f7420626520300081525060200191505060405180910390fd5b600082141515156104a5576040517f08c379a00000000000000000000000000000000000000000000000000000000081526004018080602001828103825260158152602001807f746f6b656e4964206d757374206e6f742062652030000000000000000000000081525060200191505060405180910390fd5b600260008473ffffffffffffffffffffffffffffffffffffffff1673ffffffffffffffffffffffffffffffffffffffff168152602001908152602001600020600083815260200190815260200160002054905092915050565b6000600190509392505050565b60008073ffffffffffffffffffffffffffffffffffffffff168573ffffffffffffffffffffffffffffffffffffffff16141515156105b1576040517f08c379a000000000000000000000000000000000000000000000000000000000815260040180806020018281038252601f8152602001807f746f6b656e436f6e747261637441646472206d757374206e6f7420626520300081525060200191505060405180910390fd5b6000841415151561062a576040517f08c379a00000000000000000000000000000000000000000000000000000000081526004018080602001828103825260158152602001807f746f6b656e4964206d757374206e6f742062652030000000000000000000000081525060200191505060405180910390fd5b60008590508073ffffffffffffffffffffffffffffffffffffffff16636352211e866040518263ffffffff167c01000000000000000000000000000000000000000000000000000000000281526004018082815260200191505060206040518083038186803b15801561069c57600080fd5b505afa1580156106b0573d6000803e3d6000fd5b505050506040513d60208110156106c657600080fd5b810190808051906020019092919050505073ffffffffffffffffffffffffffffffffffffffff163373ffffffffffffffffffffffffffffffffffffffff16141515610779576040517f08c379a00000000000000000000000000000000000000000000000000000000081526004018080602001828103825260198152602001807f546f6b656e206e6f74206f776e65642062792073656e6465720000000000000081525060200191505060405180910390fd5b600073ffffffffffffffffffffffffffffffffffffffff168473ffffffffffffffffffffffffffffffffffffffff161415151561081e576040517f08c379a00000000000000000000000000000000000000000000000000000000081526004018080602001828103825260158152602001807f706172746e6572206d757374206e6f742062652030000000000000000000000081525060200191505060405180910390fd5b610826610eba565b6101006040519081016040528061083d6000610e99565b81526020016000600381111561084f57fe5b81526020018873ffffffffffffffffffffffffffffffffffffffff1681526020018781526020018673ffffffffffffffffffffffffffffffffffffffff168152602001600073ffffffffffffffffffffffffffffffffffffffff168152602001600081526020018581525090508060016000836000015181526020019081526020016000206000820151816000015560208201518160010160006101000a81548160ff0219169083600381111561090257fe5b021790555060408201518160010160016101000a81548173ffffffffffffffffffffffffffffffffffffffff021916908373ffffffffffffffffffffffffffffffffffffffff1602179055506060820151816002015560808201518160030160006101000a81548173ffffffffffffffffffffffffffffffffffffffff021916908373ffffffffffffffffffffffffffffffffffffffff16021790555060a08201518160040160006101000a81548173ffffffffffffffffffffffffffffffffffffffff021916908373ffffffffffffffffffffffffffffffffffffffff16021790555060c0820151816005015560e082015181600601559050508060000151600260008973ffffffffffffffffffffffffffffffffffffffff1673ffffffffffffffffffffffffffffffffffffffff168152602001908152602001600020600088815260200190815260200160002081905550806000015192505050949350505050565b6000808414151515610ae1576040517f08c379a00000000000000000000000000000000000000000000000000000000081526004018080602001828103825260178152602001807f77656464696e674964206d757374206e6f74206265203000000000000000000081525060200191505060405180910390fd5b600073ffffffffffffffffffffffffffffffffffffffff168373ffffffffffffffffffffffffffffffffffffffff1614151515610b86576040517f08c379a000000000000000000000000000000000000000000000000000000000815260040180806020018281038252601f8152602001807f746f6b656e436f6e747261637441646472206d757374206e6f7420626520300081525060200191505060405180910390fd5b60008214151515610bff576040517f08c379a00000000000000000000000000000000000000000000000000000000081526004018080602001828103825260158152602001807f746f6b656e4964206d757374206e6f742062652030000000000000000000000081525060200191505060405180910390fd5b60008390508073ffffffffffffffffffffffffffffffffffffffff16636352211e846040518263ffffffff167c01000000000000000000000000000000000000000000000000000000000281526004018082815260200191505060206040518083038186803b158015610c7157600080fd5b505afa158015610c85573d6000803e3d6000fd5b505050506040513d6020811015610c9b57600080fd5b810190808051906020019092919050505073ffffffffffffffffffffffffffffffffffffffff163373ffffffffffffffffffffffffffffffffffffffff16141515610d4e576040517f08c379a00000000000000000000000000000000000000000000000000000000081526004018080602001828103825260198152602001807f546f6b656e206e6f74206f776e65642062792073656e6465720000000000000081525060200191505060405180910390fd5b600060016000878152602001908152602001600020905060018160010160006101000a81548160ff02191690836003811115610d8657fe5b0217905550848160040160006101000a81548173ffffffffffffffffffffffffffffffffffffffff021916908373ffffffffffffffffffffffffffffffffffffffff1602179055508381600501819055506001925050509392505050565b60016020528060005260406000206000915090508060000154908060010160009054906101000a900460ff16908060010160019054906101000a900473ffffffffffffffffffffffffffffffffffffffff16908060020154908060030160009054906101000a900473ffffffffffffffffffffffffffffffffffffffff16908060040160009054906101000a900473ffffffffffffffffffffffffffffffffffffffff16908060050154908060060154905088565b60006001826000016000828254019250508190555081600001549050919050565b610100604051908101604052806000815260200160006003811115610edb57fe5b8152602001600073ffffffffffffffffffffffffffffffffffffffff16815260200160008152602001600073ffffffffffffffffffffffffffffffffffffffff168152602001600073ffffffffffffffffffffffffffffffffffffffff1681526020016000815260200160008152509056fea165627a7a72305820a85f775ff077aa3353aed808bdf10f6ff03178397f281d0da864a3e67aa1ddfa0029",
  "source": "pragma solidity >=0.4.21 <0.6.0;\r\n\r\nimport \"openzeppelin-solidity/contracts/drafts/Counter.sol\";\r\nimport \"openzeppelin-solidity/contracts/token/ERC721/IERC721.sol\";\r\n\r\ncontract Weddings {\r\n    using Counter for Counter.Counter;\r\n\r\n    //struct Nft {\r\n    //    address tokenContract;\r\n    //    uint256 tokenId;\r\n    //}\r\n\r\n    enum WeddingState {\r\n        Proposed,\r\n        Accepted,\r\n        Declined,\r\n        Divorsed\r\n    }\r\n\r\n    struct Wedding {\r\n        uint256 id;\r\n        WeddingState state;\r\n\r\n        address tokenContractA;\r\n        uint256 tokenIdA;\r\n\r\n        address partner;\r\n        address tokenContractB;\r\n        uint256 tokenIdB;\r\n\r\n        uint256 openDuration;\r\n    }\r\n\r\n    Counter.Counter private _weddingId;\r\n    mapping(uint256 => Wedding) public weddings;\r\n    mapping(address => mapping(uint256 => uint256)) private _proposerToWeddingIds;\r\n\r\n    constructor() public {\r\n\r\n    }\r\n\r\n    // XXX: Needs AbiEncoderV2\r\n    //function getWedding(uint256 weddingId) public returns (Wedding memory wedding) {\r\n    //    return _weddings[weddingId];\r\n    //}\r\n\r\n    function getWeddingIdByProposer(address tokenContractAddr, uint256 tokenId) \r\n        public view returns (uint256 weddingId) {\r\n        require(tokenContractAddr != address(0), \"tokenContractAddr must not be 0\");\r\n        require(tokenId != 0, \"tokenId must not be 0\");\r\n\r\n        return _proposerToWeddingIds[tokenContractAddr][tokenId];\r\n    }\r\n\r\n    function createWedding(\r\n        address tokenContractAddr,\r\n        uint256 tokenId,\r\n        address partnerAddr,\r\n        uint256 openDuration)\r\n        public returns (uint256 weddingId) {\r\n\r\n        require(tokenContractAddr != address(0), \"tokenContractAddr must not be 0\");\r\n        require(tokenId != 0, \"tokenId must not be 0\");\r\n        IERC721 tokenContract = IERC721(tokenContractAddr);\r\n        require(msg.sender == tokenContract.ownerOf(tokenId), \"Token not owned by sender\");\r\n        require(partnerAddr != address(0), \"partner must not be 0\");\r\n\r\n        Wedding memory wedding = Wedding({\r\n            id: _weddingId.next(),\r\n            state: WeddingState.Proposed,\r\n\r\n            tokenContractA: tokenContractAddr,\r\n            tokenIdA: tokenId,\r\n\r\n            partner: partnerAddr,\r\n            tokenContractB: address(0),\r\n            tokenIdB: 0,\r\n\r\n            openDuration: openDuration\r\n        });\r\n        weddings[wedding.id] = wedding;\r\n        _proposerToWeddingIds[tokenContractAddr][tokenId] = wedding.id;\r\n        \r\n        return wedding.id;\r\n    }\r\n\r\n    function acceptWedding(\r\n        uint256 weddingId,\r\n        address tokenContractAddr,\r\n        uint256 tokenId)\r\n        public returns (bool success) {\r\n        require(weddingId != 0, \"weddingId must not be 0\");\r\n        require(tokenContractAddr != address(0), \"tokenContractAddr must not be 0\");\r\n        require(tokenId != 0, \"tokenId must not be 0\");\r\n        IERC721 tokenContract = IERC721(tokenContractAddr);\r\n        require(msg.sender == tokenContract.ownerOf(tokenId), \"Token not owned by sender\");\r\n\r\n        // TODO: check that wedding exists.\r\n        Wedding storage wedding = weddings[weddingId];\r\n        wedding.state = WeddingState.Accepted;\r\n        wedding.tokenContractB = tokenContractAddr;\r\n        wedding.tokenIdB = tokenId;\r\n\r\n        return true;\r\n    }\r\n\r\n    function joinWedding(\r\n        uint256 weddingId,\r\n        address tokenContract,\r\n        uint256 tokenId)\r\n        public returns (bool success) {\r\n        return true;\r\n    }\r\n\r\n    /*function divorce(\r\n        uint256 weddingId,\r\n        address tokenContract,\r\n        uint256 tokenId)\r\n        public returns (bool success) {\r\n        return true;\r\n    }\r\n\r\n    function leaveWedding(\r\n        uint256 weddingId,\r\n        address tokenContract,\r\n        uint256 tokenId)\r\n        public returns (bool success) {\r\n        return true;\r\n    }*/\r\n}",
  "sourcePath": "C:/Users/fabia/projects/cryptowedding/contracts/Weddings.sol",
  "compiler": {
    "name": "solc",
    "version": "0.5.0+commit.1d4f565a.Emscripten.clang"
  },
  "schemaVersion": "3.0.2",
  "updatedAt": "2019-03-09T12:48:41.389Z",
  "devdoc": {
    "methods": {}
  },
  "userdoc": {
    "methods": {}
  }
}